{
  "contractName": "ICO",
  "abi": [
    {
      "constant": true,
      "inputs": [],
      "name": "minPurchase",
      "outputs": [
        {
          "name": "",
          "type": "uint256"
        }
      ],
      "payable": false,
      "stateMutability": "view",
      "type": "function"
    },
    {
      "constant": true,
      "inputs": [],
      "name": "availableTokens",
      "outputs": [
        {
          "name": "",
          "type": "uint256"
        }
      ],
      "payable": false,
      "stateMutability": "view",
      "type": "function"
    },
    {
      "constant": true,
      "inputs": [
        {
          "name": "",
          "type": "address"
        }
      ],
      "name": "investors",
      "outputs": [
        {
          "name": "",
          "type": "bool"
        }
      ],
      "payable": false,
      "stateMutability": "view",
      "type": "function"
    },
    {
      "constant": true,
      "inputs": [],
      "name": "released",
      "outputs": [
        {
          "name": "",
          "type": "bool"
        }
      ],
      "payable": false,
      "stateMutability": "view",
      "type": "function"
    },
    {
      "constant": true,
      "inputs": [],
      "name": "maxPurchase",
      "outputs": [
        {
          "name": "",
          "type": "uint256"
        }
      ],
      "payable": false,
      "stateMutability": "view",
      "type": "function"
    },
    {
      "constant": true,
      "inputs": [],
      "name": "price",
      "outputs": [
        {
          "name": "",
          "type": "uint256"
        }
      ],
      "payable": false,
      "stateMutability": "view",
      "type": "function"
    },
    {
      "constant": true,
      "inputs": [
        {
          "name": "",
          "type": "uint256"
        }
      ],
      "name": "sales",
      "outputs": [
        {
          "name": "investor",
          "type": "address"
        },
        {
          "name": "quantity",
          "type": "uint256"
        }
      ],
      "payable": false,
      "stateMutability": "view",
      "type": "function"
    },
    {
      "constant": true,
      "inputs": [],
      "name": "end",
      "outputs": [
        {
          "name": "",
          "type": "uint256"
        }
      ],
      "payable": false,
      "stateMutability": "view",
      "type": "function"
    },
    {
      "constant": true,
      "inputs": [],
      "name": "admin",
      "outputs": [
        {
          "name": "",
          "type": "address"
        }
      ],
      "payable": false,
      "stateMutability": "view",
      "type": "function"
    },
    {
      "constant": true,
      "inputs": [],
      "name": "token",
      "outputs": [
        {
          "name": "",
          "type": "address"
        }
      ],
      "payable": false,
      "stateMutability": "view",
      "type": "function"
    },
    {
      "inputs": [
        {
          "name": "_name",
          "type": "string"
        },
        {
          "name": "_symbol",
          "type": "string"
        },
        {
          "name": "_decimals",
          "type": "uint8"
        },
        {
          "name": "_totalSupply",
          "type": "uint256"
        }
      ],
      "payable": false,
      "stateMutability": "nonpayable",
      "type": "constructor"
    },
    {
      "constant": true,
      "inputs": [
        {
          "name": "_investor",
          "type": "address"
        }
      ],
      "name": "getSale",
      "outputs": [
        {
          "name": "",
          "type": "uint256"
        }
      ],
      "payable": false,
      "stateMutability": "view",
      "type": "function"
    },
    {
      "constant": false,
      "inputs": [
        {
          "name": "duration",
          "type": "uint256"
        },
        {
          "name": "_price",
          "type": "uint256"
        },
        {
          "name": "_availableTokens",
          "type": "uint256"
        },
        {
          "name": "_minPurchase",
          "type": "uint256"
        },
        {
          "name": "_maxPurchase",
          "type": "uint256"
        }
      ],
      "name": "start",
      "outputs": [],
      "payable": false,
      "stateMutability": "nonpayable",
      "type": "function"
    },
    {
      "constant": false,
      "inputs": [
        {
          "name": "investor",
          "type": "address"
        }
      ],
      "name": "whitelist",
      "outputs": [],
      "payable": false,
      "stateMutability": "nonpayable",
      "type": "function"
    },
    {
      "constant": false,
      "inputs": [
        {
          "name": "amount",
          "type": "uint256"
        }
      ],
      "name": "buy",
      "outputs": [],
      "payable": true,
      "stateMutability": "payable",
      "type": "function"
    },
    {
      "constant": false,
      "inputs": [],
      "name": "release",
      "outputs": [],
      "payable": false,
      "stateMutability": "nonpayable",
      "type": "function"
    },
    {
      "constant": false,
      "inputs": [
        {
          "name": "to",
          "type": "address"
        },
        {
          "name": "amount",
          "type": "uint256"
        }
      ],
      "name": "withdraw",
      "outputs": [],
      "payable": false,
      "stateMutability": "nonpayable",
      "type": "function"
    }
  ],
  "bytecode": "0x60806040523480156200001157600080fd5b506040516200286238038062002862833981018060405260808110156200003757600080fd5b8101908080516401000000008111156200005057600080fd5b828101905060208101848111156200006757600080fd5b81518560018202830111640100000000821117156200008557600080fd5b50509291906020018051640100000000811115620000a257600080fd5b82810190506020810184811115620000b957600080fd5b8151856001820283011164010000000082111715620000d757600080fd5b50509291906020018051906020019092919080519060200190929190505050838383836040516200010890620002a6565b8080602001806020018560ff1660ff168152602001848152602001838103835287818151815260200191508051906020019080838360005b838110156200015d57808201518184015260208101905062000140565b50505050905090810190601f1680156200018b5780820380516001836020036101000a031916815260200191505b50838103825286818151815260200191508051906020019080838360005b83811015620001c6578082015181840152602081019050620001a9565b50505050905090810190601f168015620001f45780820380516001836020036101000a031916815260200191505b509650505050505050604051809103906000f0801580156200021a573d6000803e3d6000fd5b50600260006101000a81548173ffffffffffffffffffffffffffffffffffffffff021916908373ffffffffffffffffffffffffffffffffffffffff16021790555033600360006101000a81548173ffffffffffffffffffffffffffffffffffffffff021916908373ffffffffffffffffffffffffffffffffffffffff16021790555050505050620002b4565b610ff6806200186c83390190565b6115a880620002c46000396000f3fe6080604052600436106100f35760003560e01c8063a035b1fe1161008a578063efbe1c1c11610059578063efbe1c1c1461041c578063f3fef3a314610447578063f851a440146104a2578063fc0c546a146104f9576100f3565b8063a035b1fe146102de578063b5f522f714610309578063d607b55b1461038b578063d96a094a146103ee576100f3565b806386d1a69f116100c657806386d1a69f1461021c5780639613252114610233578063977b055b146102625780639b19251a1461028d576100f3565b806325b8b8cb146100f857806333b5b62e1461015d57806369bb4dc2146101885780636f7bc9be146101b3575b600080fd5b34801561010457600080fd5b506101476004803603602081101561011b57600080fd5b81019080803573ffffffffffffffffffffffffffffffffffffffff169060200190929190505050610550565b6040518082815260200191505060405180910390f35b34801561016957600080fd5b50610172610616565b6040518082815260200191505060405180910390f35b34801561019457600080fd5b5061019d61061c565b6040518082815260200191505060405180910390f35b3480156101bf57600080fd5b50610202600480360360208110156101d657600080fd5b81019080803573ffffffffffffffffffffffffffffffffffffffff169060200190929190505050610622565b604051808215151515815260200191505060405180910390f35b34801561022857600080fd5b50610231610642565b005b34801561023f57600080fd5b50610248610974565b604051808215151515815260200191505060405180910390f35b34801561026e57600080fd5b50610277610987565b6040518082815260200191505060405180910390f35b34801561029957600080fd5b506102dc600480360360208110156102b057600080fd5b81019080803573ffffffffffffffffffffffffffffffffffffffff16906020019092919050505061098d565b005b3480156102ea57600080fd5b506102f3610aaa565b6040518082815260200191505060405180910390f35b34801561031557600080fd5b506103426004803603602081101561032c57600080fd5b8101908080359060200190929190505050610ab0565b604051808373ffffffffffffffffffffffffffffffffffffffff1673ffffffffffffffffffffffffffffffffffffffff1681526020018281526020019250505060405180910390f35b34801561039757600080fd5b506103ec600480360360a08110156103ae57600080fd5b810190808035906020019092919080359060200190929190803590602001909291908035906020019092919080359060200190929190505050610b01565b005b61041a6004803603602081101561040457600080fd5b8101908080359060200190929190505050610ec6565b005b34801561042857600080fd5b50610431611250565b6040518082815260200191505060405180910390f35b34801561045357600080fd5b506104a06004803603604081101561046a57600080fd5b81019080803573ffffffffffffffffffffffffffffffffffffffff16906020019092919080359060200190929190505050611256565b005b3480156104ae57600080fd5b506104b7611480565b604051808273ffffffffffffffffffffffffffffffffffffffff1673ffffffffffffffffffffffffffffffffffffffff16815260200191505060405180910390f35b34801561050557600080fd5b5061050e6114a6565b604051808273ffffffffffffffffffffffffffffffffffffffff1673ffffffffffffffffffffffffffffffffffffffff16815260200191505060405180910390f35b600080600090505b60008054905081101561060b578273ffffffffffffffffffffffffffffffffffffffff166000828154811061058957fe5b906000526020600020906002020160000160009054906101000a900473ffffffffffffffffffffffffffffffffffffffff1673ffffffffffffffffffffffffffffffffffffffff1614156105fe57600081815481106105e457fe5b906000526020600020906002020160010154915050610611565b8080600101915050610558565b50600090505b919050565b60075481565b60065481565b60016020528060005260406000206000915054906101000a900460ff1681565b600360009054906101000a900473ffffffffffffffffffffffffffffffffffffffff1673ffffffffffffffffffffffffffffffffffffffff163373ffffffffffffffffffffffffffffffffffffffff1614610705576040517f08c379a000000000000000000000000000000000000000000000000000000000815260040180806020018281038252600a8152602001807f6f6e6c792061646d696e0000000000000000000000000000000000000000000081525060200191505060405180910390fd5b600060045411801561072657506004544210158061072557506000600654145b5b610798576040517f08c379a00000000000000000000000000000000000000000000000000000000081526004018080602001828103825260138152602001807f49434f206d757374206861766520656e6465640000000000000000000000000081525060200191505060405180910390fd5b60001515600960009054906101000a900460ff16151514610804576040517f08c379a000000000000000000000000000000000000000000000000000000000815260040180806020018281038252602281526020018061155b6022913960400191505060405180910390fd5b6000600260009054906101000a900473ffffffffffffffffffffffffffffffffffffffff16905060008090505b60008054905081101561095557600080828154811061084c57fe5b906000526020600020906002020190508273ffffffffffffffffffffffffffffffffffffffff1663a9059cbb8260000160009054906101000a900473ffffffffffffffffffffffffffffffffffffffff1683600101546040518363ffffffff1660e01b8152600401808373ffffffffffffffffffffffffffffffffffffffff1673ffffffffffffffffffffffffffffffffffffffff16815260200182815260200192505050602060405180830381600087803b15801561090b57600080fd5b505af115801561091f573d6000803e3d6000fd5b505050506040513d602081101561093557600080fd5b810190808051906020019092919050505050508080600101915050610831565b506001600960006101000a81548160ff02191690831515021790555050565b600960009054906101000a900460ff1681565b60085481565b600360009054906101000a900473ffffffffffffffffffffffffffffffffffffffff1673ffffffffffffffffffffffffffffffffffffffff163373ffffffffffffffffffffffffffffffffffffffff1614610a50576040517f08c379a000000000000000000000000000000000000000000000000000000000815260040180806020018281038252600a8152602001807f6f6e6c792061646d696e0000000000000000000000000000000000000000000081525060200191505060405180910390fd5b60018060008373ffffffffffffffffffffffffffffffffffffffff1673ffffffffffffffffffffffffffffffffffffffff16815260200190815260200160002060006101000a81548160ff02191690831515021790555050565b60055481565b60008181548110610abd57fe5b90600052602060002090600202016000915090508060000160009054906101000a900473ffffffffffffffffffffffffffffffffffffffff16908060010154905082565b600360009054906101000a900473ffffffffffffffffffffffffffffffffffffffff1673ffffffffffffffffffffffffffffffffffffffff163373ffffffffffffffffffffffffffffffffffffffff1614610bc4576040517f08c379a000000000000000000000000000000000000000000000000000000000815260040180806020018281038252600a8152602001807f6f6e6c792061646d696e0000000000000000000000000000000000000000000081525060200191505060405180910390fd5b600060045414610c3c576040517f08c379a00000000000000000000000000000000000000000000000000000000081526004018080602001828103825260188152602001807f49434f2073686f756c64206e6f7420626520616374697665000000000000000081525060200191505060405180910390fd5b60008511610cb2576040517f08c379a00000000000000000000000000000000000000000000000000000000081526004018080602001828103825260168152602001807f6475726174696f6e2073686f756c64206265203e20300000000000000000000081525060200191505060405180910390fd5b6000600260009054906101000a900473ffffffffffffffffffffffffffffffffffffffff1673ffffffffffffffffffffffffffffffffffffffff166318160ddd6040518163ffffffff1660e01b815260040160206040518083038186803b158015610d1c57600080fd5b505afa158015610d30573d6000803e3d6000fd5b505050506040513d6020811015610d4657600080fd5b81019080805190602001909291905050509050600084118015610d695750808411155b610dbe576040517f08c379a000000000000000000000000000000000000000000000000000000000815260040180806020018281038252602c81526020018061152f602c913960400191505060405180910390fd5b60008311610e34576040517f08c379a00000000000000000000000000000000000000000000000000000000081526004018080602001828103825260178152602001807f5f6d696e50757263686173652073686f756c64203e203000000000000000000081525060200191505060405180910390fd5b600082118015610e445750838211155b610e99576040517f08c379a00000000000000000000000000000000000000000000000000000000081526004018080602001828103825260328152602001806114fd6032913960400191505060405180910390fd5b42860160048190555084600581905550836006819055508260078190555081600881905550505050505050565b60011515600160003373ffffffffffffffffffffffffffffffffffffffff1673ffffffffffffffffffffffffffffffffffffffff16815260200190815260200160002060009054906101000a900460ff16151514610f8c576040517f08c379a000000000000000000000000000000000000000000000000000000000815260040180806020018281038252600e8152602001807f6f6e6c7920696e766573746f727300000000000000000000000000000000000081525060200191505060405180910390fd5b6000600454118015610f9f575060045442105b8015610fad57506000600654115b61101f576040517f08c379a00000000000000000000000000000000000000000000000000000000081526004018080602001828103825260128152602001807f49434f206d75737420626520616374697665000000000000000000000000000081525060200191505060405180910390fd5b60003490506000600554828161103157fe5b06146110a5576040517f08c379a00000000000000000000000000000000000000000000000000000000081526004018080602001828103825260208152602001807f6861766520746f2073656e642061206d756c7469706c65206f6620707269636581525060200191505060405180910390fd5b60075481101580156110b957506008548111155b61110e576040517f08c379a00000000000000000000000000000000000000000000000000000000081526004018080602001828103825260308152602001806114cd6030913960400191505060405180910390fd5b60008160055402905060065481111561118f576040517f08c379a000000000000000000000000000000000000000000000000000000000815260040180806020018281038252601f8152602001807f4e6f7420656e6f75676820746f6b656e73206c65667420666f722073616c650081525060200191505060405180910390fd5b600060405180604001604052803373ffffffffffffffffffffffffffffffffffffffff168152602001838152509080600181540180825580915050906001820390600052602060002090600202016000909192909190915060008201518160000160006101000a81548173ffffffffffffffffffffffffffffffffffffffff021916908373ffffffffffffffffffffffffffffffffffffffff1602179055506020820151816001015550505080600660008282540392505081905550505050565b60045481565b600360009054906101000a900473ffffffffffffffffffffffffffffffffffffffff1673ffffffffffffffffffffffffffffffffffffffff163373ffffffffffffffffffffffffffffffffffffffff1614611319576040517f08c379a000000000000000000000000000000000000000000000000000000000815260040180806020018281038252600a8152602001807f6f6e6c792061646d696e0000000000000000000000000000000000000000000081525060200191505060405180910390fd5b600060045411801561133a57506004544210158061133957506000600654145b5b6113ac576040517f08c379a00000000000000000000000000000000000000000000000000000000081526004018080602001828103825260138152602001807f49434f206d757374206861766520656e6465640000000000000000000000000081525060200191505060405180910390fd5b60011515600960009054906101000a900460ff16151514611435576040517f08c379a000000000000000000000000000000000000000000000000000000000815260040180806020018281038252601e8152602001807f546f6b656e73206d7573742068617665206265656e2072656c6561736564000081525060200191505060405180910390fd5b8173ffffffffffffffffffffffffffffffffffffffff166108fc829081150290604051600060405180830381858888f1935050505015801561147b573d6000803e3d6000fd5b505050565b600360009054906101000a900473ffffffffffffffffffffffffffffffffffffffff1681565b600260009054906101000a900473ffffffffffffffffffffffffffffffffffffffff168156fe6861766520746f2073656e64206265747765656e206d696e507572636861736520616e64206d617850757263686173655f6d617850757263686173652073686f756c64206265203e203020616e64203c3d205f617661696c61626c65546f6b656e73746f74616c537570706c792073686f756c64206265203e203020616e64203c3d20746f74616c537570706c79546f6b656e73206d757374204e4f542068617665206265656e2072656c6561736564a165627a7a723058208fc9222e4659d185206b8fe52bf68efdc12e144546e67b656c703bfbd909e8c0002960806040523480156200001157600080fd5b5060405162000ff638038062000ff6833981018060405260808110156200003757600080fd5b8101908080516401000000008111156200005057600080fd5b828101905060208101848111156200006757600080fd5b81518560018202830111640100000000821117156200008557600080fd5b50509291906020018051640100000000811115620000a257600080fd5b82810190506020810184811115620000b957600080fd5b8151856001820283011164010000000082111715620000d757600080fd5b5050929190602001805190602001909291908051906020019092919050505083600090805190602001906200010e9291906200019a565b508260019080519060200190620001279291906200019a565b5081600260006101000a81548160ff021916908360ff16021790555080600381905550600354600460003373ffffffffffffffffffffffffffffffffffffffff1673ffffffffffffffffffffffffffffffffffffffff168152602001908152602001600020819055505050505062000249565b828054600181600116156101000203166002900490600052602060002090601f016020900481019282601f10620001dd57805160ff19168380011785556200020e565b828001600101855582156200020e579182015b828111156200020d578251825591602001919060010190620001f0565b5b5090506200021d919062000221565b5090565b6200024691905b808211156200024257600081600090555060010162000228565b5090565b90565b610d9d80620002596000396000f3fe608060405234801561001057600080fd5b50600436106100b45760003560e01c80633eaaf86b116100715780633eaaf86b146102c25780635c658165146102e057806370a082311461035857806395d89b41146103b0578063a9059cbb14610433578063dd62ed3e14610499576100b4565b806306fdde03146100b9578063095ea7b31461013c57806318160ddd146101a257806323b872dd146101c057806327e235e314610246578063313ce5671461029e575b600080fd5b6100c1610511565b6040518080602001828103825283818151815260200191508051906020019080838360005b838110156101015780820151818401526020810190506100e6565b50505050905090810190601f16801561012e5780820380516001836020036101000a031916815260200191505b509250505060405180910390f35b6101886004803603604081101561015257600080fd5b81019080803573ffffffffffffffffffffffffffffffffffffffff169060200190929190803590602001909291905050506105af565b604051808215151515815260200191505060405180910390f35b6101aa6106a1565b6040518082815260200191505060405180910390f35b61022c600480360360608110156101d657600080fd5b81019080803573ffffffffffffffffffffffffffffffffffffffff169060200190929190803573ffffffffffffffffffffffffffffffffffffffff169060200190929190803590602001909291905050506106ab565b604051808215151515815260200191505060405180910390f35b6102886004803603602081101561025c57600080fd5b81019080803573ffffffffffffffffffffffffffffffffffffffff1690602001909291905050506109ed565b6040518082815260200191505060405180910390f35b6102a6610a05565b604051808260ff1660ff16815260200191505060405180910390f35b6102ca610a18565b6040518082815260200191505060405180910390f35b610342600480360360408110156102f657600080fd5b81019080803573ffffffffffffffffffffffffffffffffffffffff169060200190929190803573ffffffffffffffffffffffffffffffffffffffff169060200190929190505050610a1e565b6040518082815260200191505060405180910390f35b61039a6004803603602081101561036e57600080fd5b81019080803573ffffffffffffffffffffffffffffffffffffffff169060200190929190505050610a43565b6040518082815260200191505060405180910390f35b6103b8610a8c565b6040518080602001828103825283818151815260200191508051906020019080838360005b838110156103f85780820151818401526020810190506103dd565b50505050905090810190601f1680156104255780820380516001836020036101000a031916815260200191505b509250505060405180910390f35b61047f6004803603604081101561044957600080fd5b81019080803573ffffffffffffffffffffffffffffffffffffffff16906020019092919080359060200190929190505050610b2a565b604051808215151515815260200191505060405180910390f35b6104fb600480360360408110156104af57600080fd5b81019080803573ffffffffffffffffffffffffffffffffffffffff169060200190929190803573ffffffffffffffffffffffffffffffffffffffff169060200190929190505050610cea565b6040518082815260200191505060405180910390f35b60008054600181600116156101000203166002900480601f0160208091040260200160405190810160405280929190818152602001828054600181600116156101000203166002900480156105a75780601f1061057c576101008083540402835291602001916105a7565b820191906000526020600020905b81548152906001019060200180831161058a57829003601f168201915b505050505081565b600081600560003373ffffffffffffffffffffffffffffffffffffffff1673ffffffffffffffffffffffffffffffffffffffff16815260200190815260200160002060008573ffffffffffffffffffffffffffffffffffffffff1673ffffffffffffffffffffffffffffffffffffffff168152602001908152602001600020819055508273ffffffffffffffffffffffffffffffffffffffff163373ffffffffffffffffffffffffffffffffffffffff167f8c5be1e5ebec7d5bd14f71427d1e84f3dd0314c0f7b2291e5b200ac8c7c3b925846040518082815260200191505060405180910390a36001905092915050565b6000600354905090565b600080600560008673ffffffffffffffffffffffffffffffffffffffff1673ffffffffffffffffffffffffffffffffffffffff16815260200190815260200160002060003373ffffffffffffffffffffffffffffffffffffffff1673ffffffffffffffffffffffffffffffffffffffff168152602001908152602001600020549050828110156107a3576040517f08c379a00000000000000000000000000000000000000000000000000000000081526004018080602001828103825260118152602001807f616c6c6f77616e636520746f6f206c6f7700000000000000000000000000000081525060200191505060405180910390fd5b82600460008773ffffffffffffffffffffffffffffffffffffffff1673ffffffffffffffffffffffffffffffffffffffff168152602001908152602001600020541015610858576040517f08c379a00000000000000000000000000000000000000000000000000000000081526004018080602001828103825260158152602001807f746f6b656e2062616c616e636520746f6f206c6f77000000000000000000000081525060200191505060405180910390fd5b82600560008773ffffffffffffffffffffffffffffffffffffffff1673ffffffffffffffffffffffffffffffffffffffff16815260200190815260200160002060003373ffffffffffffffffffffffffffffffffffffffff1673ffffffffffffffffffffffffffffffffffffffff1681526020019081526020016000206000828254039250508190555082600460008773ffffffffffffffffffffffffffffffffffffffff1673ffffffffffffffffffffffffffffffffffffffff1681526020019081526020016000206000828254039250508190555082600460008673ffffffffffffffffffffffffffffffffffffffff1673ffffffffffffffffffffffffffffffffffffffff168152602001908152602001600020600082825401925050819055508373ffffffffffffffffffffffffffffffffffffffff168573ffffffffffffffffffffffffffffffffffffffff167fddf252ad1be2c89b69c2b068fc378daa952ba7f163c4a11628f55a4df523b3ef856040518082815260200191505060405180910390a360019150509392505050565b60046020528060005260406000206000915090505481565b600260009054906101000a900460ff1681565b60035481565b6005602052816000526040600020602052806000526040600020600091509150505481565b6000600460008373ffffffffffffffffffffffffffffffffffffffff1673ffffffffffffffffffffffffffffffffffffffff168152602001908152602001600020549050919050565b60018054600181600116156101000203166002900480601f016020809104026020016040519081016040528092919081815260200182805460018160011615610100020316600290048015610b225780601f10610af757610100808354040283529160200191610b22565b820191906000526020600020905b815481529060010190602001808311610b0557829003601f168201915b505050505081565b600081600460003373ffffffffffffffffffffffffffffffffffffffff1673ffffffffffffffffffffffffffffffffffffffff168152602001908152602001600020541015610be1576040517f08c379a00000000000000000000000000000000000000000000000000000000081526004018080602001828103825260158152602001807f746f6b656e2062616c616e636520746f6f206c6f77000000000000000000000081525060200191505060405180910390fd5b81600460003373ffffffffffffffffffffffffffffffffffffffff1673ffffffffffffffffffffffffffffffffffffffff1681526020019081526020016000206000828254039250508190555081600460008573ffffffffffffffffffffffffffffffffffffffff1673ffffffffffffffffffffffffffffffffffffffff168152602001908152602001600020600082825401925050819055508273ffffffffffffffffffffffffffffffffffffffff163373ffffffffffffffffffffffffffffffffffffffff167fddf252ad1be2c89b69c2b068fc378daa952ba7f163c4a11628f55a4df523b3ef846040518082815260200191505060405180910390a36001905092915050565b6000600560008473ffffffffffffffffffffffffffffffffffffffff1673ffffffffffffffffffffffffffffffffffffffff16815260200190815260200160002060008373ffffffffffffffffffffffffffffffffffffffff1673ffffffffffffffffffffffffffffffffffffffff1681526020019081526020016000205490509291505056fea165627a7a72305820eb13a66d337a8093ebfe207e3e27086c5018d34e766f36f090afc4c6d184d76f0029",
  "source": "pragma solidity ^0.5.7;\n\nimport { ERC20Token } from './ERC20Token.sol';\n\ncontract ICO {\n    struct Sale {\n        address investor;\n        uint quantity;\n    }\n    Sale[] public sales;\n    mapping(address => bool) public investors;\n    address public token;\n    address public admin;\n    uint public end;\n    uint public price;\n    uint public availableTokens;\n    uint public minPurchase;\n    uint public maxPurchase;\n    bool public released;\n    \n    constructor(\n        string memory _name,\n        string memory _symbol,\n        uint8 _decimals,\n        uint _totalSupply)\n        public {\n        token = address(new ERC20Token(\n            _name,\n            _symbol,\n            _decimals,\n            _totalSupply\n        ));\n        admin = msg.sender;\n    }\n\n    //I have added this function for the frontend\n    function getSale(address _investor) external view returns(uint) {\n      for(uint i = 0; i < sales.length; i++) {\n        if(sales[i].investor == _investor) {\n          return sales[i].quantity;\n        }\n      }\n      return 0;\n    }\n    \n    function start(\n        uint duration,\n        uint _price,\n        uint _availableTokens,\n        uint _minPurchase,\n        uint _maxPurchase)\n        external\n        onlyAdmin() \n        icoNotActive() {\n        require(duration > 0, 'duration should be > 0');\n        uint totalSupply = ERC20Token(token).totalSupply();\n        require(_availableTokens > 0 && _availableTokens <= totalSupply, 'totalSupply should be > 0 and <= totalSupply');\n        require(_minPurchase > 0, '_minPurchase should > 0');\n        require(_maxPurchase > 0 && _maxPurchase <= _availableTokens, '_maxPurchase should be > 0 and <= _availableTokens');\n        end = duration + now; \n        price = _price;\n        availableTokens = _availableTokens;\n        minPurchase = _minPurchase;\n        maxPurchase = _maxPurchase;\n    }\n    \n    function whitelist(address investor)\n        external\n        onlyAdmin() {\n        investors[investor] = true;    \n    }\n    \n    function buy(uint amount)\n        payable\n        external\n        onlyInvestors()\n        icoActive() {\n        uint amount = msg.value;\n        require(amount % price == 0, 'have to send a multiple of price');\n        require(amount >= minPurchase && amount <= maxPurchase, 'have to send between minPurchase and maxPurchase');\n        uint quantity = price * amount;\n        require(quantity <= availableTokens, 'Not enough tokens left for sale');\n        sales.push(Sale(\n            msg.sender,\n            quantity\n        ));\n        availableTokens -= quantity;\n    }\n    \n    function release()\n        external\n        onlyAdmin()\n        icoEnded()\n        tokensNotReleased() {\n        ERC20Token tokenInstance = ERC20Token(token);\n        for(uint i = 0; i < sales.length; i++) {\n            Sale storage sale = sales[i];\n            tokenInstance.transfer(sale.investor, sale.quantity);\n        }\n        released = true;\n    }\n    \n    function withdraw(\n        address payable to,\n        uint amount)\n        external\n        onlyAdmin()\n        icoEnded()\n        tokensReleased() {\n        to.transfer(amount);    \n    }\n    \n    modifier icoActive() {\n        require(end > 0 && now < end && availableTokens > 0, \"ICO must be active\");\n        _;\n    }\n    \n    modifier icoNotActive() {\n        require(end == 0, 'ICO should not be active');\n        _;\n    }\n    \n    modifier icoEnded() {\n        require(end > 0 && (now >= end || availableTokens == 0), 'ICO must have ended');\n        _;\n    }\n    \n    modifier tokensNotReleased() {\n        require(released == false, 'Tokens must NOT have been released');\n        _;\n    }\n    \n    modifier tokensReleased() {\n        require(released == true, 'Tokens must have been released');\n        _;\n    }\n    \n    modifier onlyInvestors() {\n        require(investors[msg.sender] == true, 'only investors');\n        _;\n    }\n    \n    modifier onlyAdmin() {\n        require(msg.sender == admin, 'only admin');\n        _;\n    }\n    \n}\n",
  "sourcePath": "/Users/ro/Documents/Dapps-Blockchain/ICOETB/contracts/ICO.sol",
  "compiler": {
    "name": "solc",
    "version": "0.5.7+commit.6da8b019.Emscripten.clang"
  },
  "schemaVersion": "3.0.23",
  "updatedAt": "2020-07-26T19:52:59.272Z",
  "networkType": "ethereum",
  "devdoc": {
    "methods": {}
  },
  "userdoc": {
    "methods": {}
  }
}